:020000040000fa
:080000000001040000000000f3
:020000040000fa
:1000080090010000900100009001000090010000a4
:100018009001000090010000900100009001000094
:100028009001000090010000900100009001000084
:100038009001000090010000900100009001000074
:100048009001000090010000900100009001000064
:100058009001000090010000900100009001000054
:100068009001000090010000900100009001000044
:100078009001000090010000900100009001000034
:100088009001000090010000900100009001000024
:100098009001000090010000900100009001000014
:1000a8009001000090010000900100009001000004
:1000b80090010000900100009001000090010000f4
:1000c80090010000900100009001000090010000e4
:1000d80090010000900100009001000090010000d4
:1000e80090010000900100009001000090010000c4
:0800f8009001000090010000de
:020000040000fa
:1001080090010000900100009001000090010000a3
:100118009001000090010000900100009001000093
:100128009001000090010000900100009001000083
:100138009001000090010000900100009001000073
:100148009001000090010000900100009001000063
:100158009001000090010000900100009001000053
:100168009001000090010000900100009001000043
:100178009001000090010000900100009001000033
:100188009001000090010000900100009001000023
:100198009001000090010000900100009001000013
:1001a8009001000090010000900100009001000003
:1001b80090010000900100009001000090010000f3
:1001c80090010000900100009001000090010000e3
:1001d80090010000900100009001000090010000d3
:1001e80090010000900100009001000090010000c3
:0801f8009001000090010000dd
:020000040000fa
:100200000f9420000eff20000e0188000000000067
:100210000c000700e0d920000100200011000700b9
:10022000000020000000e000020032000000020098
:1002300000000000f80e0200000000000040da009c
:100240000000fe004440a900e00020000000e000a3
:100250000300320000002000a00188004440a800f4
:100260000000060091018800800078000000eb008b
:1002700015003700e280400032a0b4009101ba00be
:10028000e280400032a0b4009102ba00e280400057
:1002900032a0b4000002eb00472bde00f507b200ed
:1002a000602ce10004003a000059eb008301e900f2
:1002b000fdff3e00040037006128e100010032002c
:1002c0000082eb00040007001101ba000200e00008
:1002d000e8ff3a00000006003159ba008301e90046
:1002e0000c0032002159ba008301e90008003200f5
:1002f0000400e00003003a00e280400032a0b400b5
:10030000f5ff370011d9ba008301e900faff3a007e
:100310008100e800e180400032a0b4000000060047
:100320000040da000000fe000c00fa00889fbe00ca
:1003300000047800f0ff2700d0bf9f008004eb008e
:1003400099bf9f0088bf9f00a8bf9f00200c20007e
:10035000b0bf9f0078815700cfb0970070805700e2
:10036000070007000fb89700094878008fb897007a
:10037000088050004f04be000080fa000000060014
:100380000f04b000889fbe008a9fbe008c9fbe00f5
:100390008e1f7800c0b79f00d1af9f00a2b79f000b
:1003a0000000eb00c0033700dfa897008100e800e1
:1003b000d1af9f0052c2b30082cf520006003a0074
:1003c0000007eb0006c3b30003c2b300b1c2b30021
:1003d0005fa8970014003700cfb197003301900059
:1003e0000204b20005003200030278009401780094
:1003f00085497800030ae800070037000501fb0083
:10040000cfb0970002007800b40307000001780025
:10041000e10f4100a5033200bfb297008502e8005a
:10042000b5b79f00a103370090427800d7c2b30050
:1004300087cf52000b0032000001e80087cf520046
:1004400005003c0083cf52000900320081cf5200ea
:100450000e003a000800370086cf52000b003a0029
:10046000070037000e30a0000000e800eeff370064
:100470000e00a000030037000e10a000010037009e
:100480000e20a00002007800e7ff3700d0af9f00e9
:10049000e2016700010032000e00a100e8016700e0
:1004a000010032000e20a1008501fb000303b10012
:1004b000e98f51000d003e00000020005fa9970069
:1004c0006a00b9000003b1009200fb000100400087
:1004d000d200fb000103b100e98f5000f8ff3600a5
:1004e000c0af9f00d2af9f000c0037008004eb002c
:1004f000c9af9f00a3c2b30083cf520007003a00e8
:100500002fb59700ca057800aab79f00cbaf9f0010
:100510005fa897000000e800d0af9f008000eb00cc
:10052000e1af9f00e3c2b3005fa9970092cf110033
:100530001e003a000ee0a000e4c151000201e800f4
:10054000d2af9f0012427800834f52000d003a0054
:10055000afb2970045037800a5b79f00e6af9f00b4
:10056000820378008703e800070178001000370055
:100570006a00b9000003b100020040008301e800f6
:10058000020037006fa89700dfa997001301fb0056
:1005900001fd2f0082804000e98f5000f4ff3600fb
:1005a000e0af9f0003017800010037005fa99700ca
:1005b00032427800c4779f00c8c6b300884f52000b
:1005c00023003200d2af9f000f003c0035c6b300bd
:1005d000854f5200a700320004003c00e04f52005b
:1005e0003703320083c5b3000f00370043c6b300a2
:1005f000834f5200c4003200e5c14100834f5200d6
:10060000ba003a00c000370035c7b300854f52002a
:100610001a00320007003c00f3c6b300834f5200bb
:10062000110032008341e800834f5200af003a00ce
:100630000f00370053c7b300834f5200b1003200a0
:10064000e3c14100834f5200a8003a00090037007f
:10065000700067000100280001003a00010120003d
:1006600001077700d2ff37000e60a000a600370018
:100670000e50a0000e70a000a3003700afb497008a
:10068000c9027800a9b79f00d5b79f00e08f52003c
:1006900002003a00ab902000dbb79f000000eb00a7
:1006a000e0b79f005fb09700efb097007fb1970071
:1006b0008fb99700010037008500e80081027800bb
:1006c00061427800e04f5200fbff3a00d0b79f0034
:1006d000e1b79f00f2b79f0083bf9f00efaa97008a
:1006e000e08f5200050032006fb39700868f5200f2
:1006f0000200310085037800e7b79f00efb2970052
:100700000006eb004fac9700850f54000100360047
:1007100005065400680767002f003a008c01780036
:1007200008c2b300cfb69700100037003d0090001c
:100730000004b200040032001d0078000848780070
:10074000800ee800050037008d00780000022000d0
:10075000e2020700e10f400003003200bfb497003f
:100760008904e800b9b79f008c0178000c06e90005
:10077000e08f5100edff3a00170037003d00900078
:100780000004b200090032009d01780008017800e1
:100790003240780080497800830ee8000204780037
:1007a000e04f500008003a001000370008017800c0
:1007b0003200fb00020478008d007800c7020700b9
:1007c000e10f4000090032003fb097000000e80050
:1007d000b0b79f00050037005fb49700efb49700f3
:1007e0007fb597008fbd9700cfb6970009007800be
:1007f0008004e900e00f5000e0ff3a00d8b79f0006
:10080000e9b79f00fab79f008bbf9f00e00f57002a
:10081000a602320011003700380090000004b20038
:1008200004003200180078000d487800000ce80041
:10083000050037008800780000022000a7020700aa
:10084000e10f400003003200bfb297008502e800cc
:10085000b5b79f000e067800020037000dc2b30046
:100860004fb497000c07e900e00f5600eaff3a008a
:100870008e0237002fb3970046047800a6b79f007a
:10088000cfc4de00090578008a0578000802be00a2
:100890000a03be004822de004828dd000402700082
:1008a000c4779f007006670009003200e04f5200d5
:1008b00007003200e14f420005003200d4779f006c
:1008c000e8779f0021002000e1b79f000300370078
:1008d000d8779f0012002000e2b79f0053fb2f0043
:1008e00083814700d3b79f007cff370044fb2f0074
:1008f00004824700d4b79f0015002000e5b79f0091
:1009000076ff37000e0cb3000e007800000cb2002a
:100910003b003a00e00f570005003d002fb0970064
:100920004005be004004be00a0b79f000f00370086
:1009300070006700120032002fb297004401be0021
:10094000a4b79f00e29f9f00f39f9f0014009000b8
:100950004f80de0080a79f0090a79f006f9c9700ac
:10096000ff9c97000fa597009fa59700d8b79f0001
:10097000e9b79f00fab79f008bbf9f000b003700bd
:10098000afb4970049027800a9b79f00040078002f
:10099000cf80de000101780082017800d0b79f008f
:1009a000e1b79f00f2b79f0083bf9f005fb297003f
:1009b000efb297007fb397008fbb9700e00f520014
:1009c000e08f5a00e00f5b00e08f5b0032003d00db
:1009d0003e00b3006022b8006033b8005fb49700f7
:1009e000efb497007fb597008fbd970008045200c1
:1009f00089845a000a055b008b855b002200370062
:100a0000e00f570005003d002fb297004401be00e3
:100a10004400be00a4b79f000f00370070006700bd
:100a2000120032002fb497004803be00a8b79f0001
:100a3000e6a79f00f7a79f008004eb0089af9f0007
:100a40000005eb009aaf9f006fa09700ffa09700f2
:100a50000fa997009fa99700d0b79f00e1b79f000b
:100a6000f2b79f0083bf9f000b003700afb0970025
:100a700041027800a1b79f0004047800090020001b
:100a80000a0020000b002000d8b79f00e9b79f00a4
:100a9000fab79f008bbf9f00efac9700e08f540028
:100aa0000d003a001a002000eaaf9f005fb09700e7
:100ab000efb097007fb197008fb99700e00f50001b
:100ac000e08f5800e00f5900e08f5900020032001b
:100ad0008000eb00e1af9f000e017800020cb20035
:100ae000b2af9f0005042000850f51003f00320087
:100af00003003c00e00f51000800320056003700b0
:100b000004082000bfa99700848f51001b00320009
:100b1000040c2000848f51004f003a0013c0b30032
:100b2000c3779f0081842000100037000200fb0083
:100b30004300dd00008040003002be002003be0004
:100b40005fb49700efb497007fb597008fbd970013
:100b50000440e10005c8e10006d0e10007d8e1004b
:100b60003d0039000241e800c2779f004f719700b5
:100b7000f44f5100edff3a003700370013c0b300c7
:100b8000c3779f0004012000050020006033b800f7
:100b9000120037005fb49700efb497007fb597005d
:100ba0008fbd97000440e10005c8e10006d0e100d8
:100bb00007d8e10028003900490020000402d000d5
:100bc0008582d2000683d2008783d2008904e9009f
:100bd000faff3a000040e800c0779f004f7097008e
:100be000f04f5000ebff3a001b00370013c0b3007a
:100bf000c3779f0084002000050020006033b80008
:100c0000120037005fb49700efb497007fb59700ec
:100c10008fbd97000440e10005c8e10006d0e10067
:100c200007d8e1000c003900390020000402d00090
:100c30008582d2000683d2008783d2008904e9002e
:100c4000faff3a000040e800c0779f004f7097001d
:100c5000f54f5000ebff3a004f7597008a02fb00fa
:100c6000efad97008b8f520002003d00cb779f00c5
:100c7000040037006fa89700850f500001003d0069
:100c8000e5af9f00cfa89700e08f5000040032002e
:100c900063026700020032008100e900c1af9f00db
:100ca0000400240004026700090032004fa99700e5
:100cb000efa99700830f5100030034000301510096
:100cc000c2af9f00020037000002eb00c4af9f00dc
:100cd0004f7397008602fb008003eb00a7af9f00d5
:100ce0004fac9700850f5400020034008502540079
:100cf000a5af9f00640267004c003200e20267006b
:100d000061036700e08f52001b003200cfb49700f0
:100d1000390290000404b2000900320099037800ff
:100d2000b5c2b300e00f53000100320085c2e800f5
:100d3000854b78004fb59700070de8000a00370093
:100d4000d5022000e00f530001003a008582e9003f
:100d5000cfb097000500780060010700000278001e
:100d6000e10f420018003200bfb597008b05e80084
:100d7000bbb79f0014003700e00f53001200320091
:100d80004fb09700300290000404b200050032001a
:100d90009002780003c2b300834a78000508e80097
:100da00006003700cfb09700000220004b0107007b
:100db00000027800e10f420003003200bfb097004c
:100dc0008100e800b1b79f002fa99700e00f510004
:100dd0001101320008c3b300820678004fb69700b5
:100de0003c0090000004b200040032001c007800b7
:100df00008487800000ee800050037008c007800f5
:100e00000003200035010700e10f4000030032001d
:100e1000bfb197008301e800b3b79f008d06e900da
:100e2000efff3a00adaf9f00fb0037002faa9700fd
:100e3000e00f5200170032006802670015003a0008
:100e400008c2b300afae97004fb697003c009000c9
:100e50000004b200040032001c007800084878004a
:100e6000000ee800050037008c007800000220002a
:100e70001a010700e10f400003003200bfb29700e3
:100e80008502e800b5b79f008d06e900efff3a0044
:100e9000adaf9f00e202670061036700e08f520080
:100ea0001c003200cfb39700370290000404b20058
:100eb0000a0032000704780098037800b5c2b30036
:100ec000e00f53000100320085c2e800854b780036
:100ed000cfb49700870ce8000a003700d502200045
:100ee000e00f530001003a008582e900cfb097007f
:100ef00005007800f900070000027800e10f4200c9
:100f0000c50032003fb597000a05e800bab79f0058
:100f1000c1003700e00f5300bf003200cfb597008b
:100f20003b0290000404b200050032009b027800ee
:100f300003c2b300834a7800850de800060037003d
:100f4000cfb0970000022000e40007000002780004
:100f5000e10f4200b00032003fb097000000e8000f
:100f6000b0b79f00ac0037000e07e9000004200076
:100f7000bfa89700808f50008200320003003c0021
:100f8000e08f5000080032008e003700000820007b
:100f90003fa99700800f510065003200000c20002f
:100fa000800f510087003a004370dd00cfa9970001
:100fb000e08f51002a003d008484200000004200a0
:100fc0003004be002005be00e8af9f00f9af9f00cf
:100fd0008ab79f009bb79f000802be000a03be00ad
:100fe0005fb09700efb097007fb197008fb997007f
:100ff00014020700c0779f000004fb00cfc4de008e
:10100000090578008a0578006faa9700ffaa970063
:101010000fb397009fb397000800be000a01be00ff
:10102000740207000203be000002be005fb097001a
:10103000efb097007fb197008fb997000400500080
:10104000858058000601590087815900d0b79f005c
:10105000e1b79f00f2b79f0083bf9f0030003700c9
:10106000df989700e08f50001f0032005fb69700b6
:10107000efb6970082842000000041003004be00db
:101080002005be000801be000c00be00490107009b
:10109000c0779f000000fb00cf80de000801be008b
:1010a000540107000002560081825e00a4a79f0041
:1010b000b5a79f008002eb00c5a79f000003eb00cf
:1010c000d6a79f002fa49700bfa497004fa5970015
:1010d000dfa59700d8b79f00e9b79f00fab79f0038
:1010e0008bbf9f000e0037008984200069017800c3
:1010f0005fb59700811f7800110009000285d800b4
:10110000cf007800a2002000811f780011000900a4
:101110000280d80001007800cf007800c0779f00df
:10112000cf7597000b43b000cb779f0025003700a9
:10113000848e20004f989700e00f500001003a0085
:10114000948f20004270dd005fb49700efb49700e9
:101150007fb597008fbd9700800278008502e90077
:10116000050033008b05d1000a85d3008984d300a4
:101170000884d300f9ff37006f00640064407800f2
:101180000f0037006370b9005fb49700efb49700a9
:101190007fb597008fbd9700000278000402e90038
:1011a000050033008b05d1000a85d3008984d30064
:1011b0000884d300f9ff3700674064000043b000a3
:1011c000c0779f00cfb29700350090000004b200b6
:1011d00007003200150178004f7097000049780031
:1011e000820ae800e04f500007003a001200370082
:1011f0004f7397000600fb00cfb097003700070041
:10120000e10f40000c003200bfb397008703e800f5
:10121000b7b79f000800370070046700d89f9f0091
:101220008e0478000902b200c99f9f000e05780065
:10123000caaf9f006faf9700e00f57004aff3a0018
:101240004faf97006801670018003200afad9700fc
:10125000e08f55001500340008c2b3008b067800fb
:101260003fb797004fb697003c0090000004b200d3
:10127000040032001c00780008487800000ee800e6
:10128000050037008c0078000002200013000700e2
:10129000e10f4000010032000e07e8008d06e90072
:1012a000f1ff3a000e007800b0b79f00dfa897006a
:1012b00091427800c5779f00e0cf52003afc3a0097
:1012c0003fb097004f0778004f06be004f05be00a5
:1012d0004f04be000f04b10000000600889fbe004e
:1012e00001047800b8009000628160008084eb0007
:1012f0003c003200810178000320b2001801900008
:1013000002003a00e00f510036003a000190a000c0
:101310003104980080047800f90fb200e00f51000a
:1013200002003a0028009000000c7800ea8f540078
:1013300006003a00010078000008b20003003a00fd
:1013400088007800d0002000e4ff0700180090001b
:10135000d8009000810f50000b0032000000e80020
:10136000100498001800780009487800000ce80084
:1013700010c0b3008193200080487800ea8f5400a9
:1013800018003a000500370088007800094078000e
:101390001700070080047800120037003800900022
:1013a0000010b2000f00320018019000a800900059
:1013b000480090005000070098009000810f5000f6
:1013c00004003200380090000003b300300498009d
:1013d0008084eb000000eb001004980028009000cf
:1013e000000c7800090078004f04be0000000600e1
:1013f0000200fa00889fbe00a0ff9f000104780051
:1014000038009000800078000104b20033003a00f8
:10141000e200600005003a000003b30030049800c9
:10142000110498000080eb002e003700d8049000d3
:10143000e08f540006003a0012002000e6805700ba
:10144000480090002c000700190498002300370082
:10145000a8009000e08f500008003a00b1932000ef
:1014600021049800010c780021002000510498000c
:10147000110498000030a00030049800180190007a
:10148000a8009000480090001b0007002800900072
:101490008080eb0011049800aff8970001487800b5
:1014a000000ce8002ff89700ea4f50000b003a00bc
:1014b000380090000010b2000800320018019000bf
:1014c000a8009000480090000b0007000000eb000f
:1014d00010049800a8009000010c7800aff8970065
:1014e0000100fb004f04be000080fa00000006006f
:1014f00000c0da00000006000a00fa00e20f500007
:1015000021003e00f0498000e10f5000060032004b
:10151000e5212000a421200083212000602120005b
:10152000e08f520004003a004521200004212000f1
:10153000e3202000c0202000060028009003630064
:1015400002003a00870a780010087300004020006b
:101550001300600001003a0013a0a0000200780010
:1015600006003700930278000510b200fdff32003c
:10157000b102fb00050a78000000e900e00f50000e
:10158000f8ff3a000800370033002000b3bf9f0087
:10159000c0bf9f00d1bf9f00e2bf9f006a8057007d
:1015a000d3ff07006fb99700020078000080fa00af
:1015b000000006006022b800060220000000d000f3
:1015c0008180d2000482d2008582d2000000a00077
:1015d0000202520083825a000300310002024200dc
:1015e00083824a000000a1000603e900f3ff3a00ed
:1015f00000000600020ab900001bb9000200b80092
:10160000810042008100430000000600889fbe0068
:101610008a9fbe003004be002005be0004044400c2
:1016200085844c0006054d0087854d000898be0056
:101630000a90be000440e10005c8e10006d0e100c8
:1016400007d8e10002003100680040001008e800ff
:101650004f05be004f04be0000000600889fbe007c
:101660008a9fbe008c1f7800000678003c04be00f4
:101670002c05be000400540085805c0006015d005e
:1016800087815d00009ebe00029ebe00100020000b
:101690000440e10005c8e10006d0e10007d8e10000
:1016a000010039000000eb001c0e10004f0678000e
:1016b0004f05be004f04be00000006001200fa00f5
:1016c000889fbe008a9fbe008c9fbe000205be00a0
:1016d0000004be00e4b79f00f5b79f0086bf9f00df
:1016e00097bf9f000000eb00d0b79f00c0b79f00de
:1016f000b0b79f00a0b79f0090b79f00000678008a
:10170000fd032000dfb197004fb097000381410037
:10171000bfb09700e08f510004003d002900070092
:101720007e805700b9ff070003003700250007003f
:101730007e805700c9ff0700dfb09700e08f5000a0
:101740000700350014002000050020006033b800b9
:1017500008047200898472000a0573008b85730087
:101760000c06e8008d0f5600e6ff3400e08f5000b5
:1017700006003d006fb29700ffb297000fbb9700c5
:101780009fbb97007e805700a0ff07005fa89700cf
:10179000e00f500004003a001fb49700afb4970068
:1017a0003fb59700cfb597000800be000a01be0004
:1017b0004f06be004f05be004f04be000080fa0079
:1017c00000000600cf01de0002817100b2b79f0069
:1017d0004f09de000000400000007100a0b79f002c
:1017e0000fb097004f01de00818040008100710042
:1017f00091b79f007faa9700cf20de000000400035
:101800000080700080b79f000800be000a01be0083
:101810004f18de000402420000027200f4af9f0085
:101820000804440089844c000a054d008b854d0056
:101830004fb29700dfb297006fb39700ffb39700e6
:1018400000000600881f780018002000881f78001c
:101850009aff07008f87e9004f0478000000060018
:10186000801feb0095ff07008f87e900000006004e
:10187000889fbe008a9fbe008c1f7800e00f50003a
:10188000e08f5800e00f5900e08f59000f003d0035
:101890006044b8006055b8000000540081805c00ce
:1018a00002015d0083815d001c0020000820e10032
:1018b00009a8e1000ab0e1000bb8e1000d003d000d
:1018c000190007000006eb000a0037000006eb00d5
:1018d000e00f5200e08f5a00e00f5b00e08f5b00ea
:1018e00004003d006044b8006055b8000e000700d9
:1018f0001c002000d3ff0700e00f56000600320056
:101900006022b8006033b8000000520081805a00a5
:1019100002015b0083815b004f0678004f05be002b
:101920004f04be00000006000402540085825c00e3
:1019300006035d0087835d0000000600889fbe00ef
:101940008a9fbe008c1f7800e00f5000e08f580087
:10195000e00f5900e08f59000d003d006044b800d1
:101960006055b8000000540081805c0002015d00f9
:1019700083815d001c0020000820e10009a8e1002f
:101980000ab0e1000bb8e1000d003d00080037008f
:101990000006eb00e00f5200e08f5a00e00f5b0002
:1019a000e08f5b0006003d006044b8006055b80061
:1019b0000402540085825c0006035d0087835d009d
:1019c000a7ff0700e00f5600060032006022b800b3
:1019d0006033b8000000520081805a0002015b00b1
:1019e00083815b004f0678004f05be004f04be00a8
:1019f00000000600889fbe008a9fbe008c1f7800f2
:101a00000006eb00e00f5000e08f5800e00f590097
:101a1000e08f590007003d006044b8006055b800f1
:101a20000000540081805c0002015d0083815d0044
:101a30001c002000e00f5200e08f5a00e00f5b0016
:101a4000e08f5b0007003d006044b8006055b800bf
:101a50000402540085825c0006035d0087835d00fc
:101a60000c00a2000c000700e00f56000600320038
:101a70006022b8006033b8000000520081805a0034
:101a800002015b0083815b004f0678004f05be00ba
:101a90004f04be0000000600889fbe008a9fbe0063
:101aa0008c9fbe000404b8000506b80089044600f7
:101ab00060854e000606b8000a054600e0854e0027
:101ac0000706b8008b054600040eb80089044600de
:101ad0000a854e00e0854d00050eb8000a05460057
:101ae0008b854e00060eb8008b0546000416b80024
:101af0000a0546008b854e000516b8008b0546008a
:101b0000041eb8008b0546000800be000a01be0096
:101b10004f06be004f05be004f04be000000060089
:020000040000fa
:101b200020250000346400002025000034640000fb
:0c1b3000202500003464000000000000cc
:020000040000fa
:101b3c000008000048000000020000000100060040
:101b4c00000b000041004600004b0000ff03e800c2
:101b5c0003e60300e303df0003da0300c0035c00c9
:101b6c0003f802000000ff0003e80300e703e300b2
:101b7c0003df0300da03c000039803007003bc000a
:101b8c0002ff0300e803e60003e30300df03da00cf
:101b9c0003c003002003bc0002000200e8080000a0
:101bac002a000000020000003031320033343500ce
:101bbc003637380039414200434445004600300076
:101bcc003132330034353600373839006162630006
:101bdc006465660000286e00756c6c0029000000be
:101bec0048080000a00000000200000001000000f6
:101bfc000000000000000a000000000000000000cf
:101c0c00006400000000000000000000e803000079
:101c1c000000000000001000270000000000000081
:101c2c0000a08600010000000000000040420f00f0
:101c3c0000000000000080009698000000000000ea
:101c4c000000e100f50500000000000000ca9a0049
:101c5c003b00000000000000e40b540002000000f8
:101c6c000000e80076481700000000000010a500f6
:101c7c00d4e8000000000000a0724e00180900001b
:101c8c00000040007a10f3005a0000000080c600eb
:101c9c00a47e8d000300000000c16f00f2862300bb
:101cac00000000008a5d78004563010000006400bc
:101cbc00a7b3b600e00d000000e889000423c700bc
:101ccc008a00000038090000060000000000000037
:101cdc001209000026000000020000003909000073
:101cec000039090009000000000200003b09000057
:101cfc00003b09000e020100000000000000000083
:101d0c0000000000060202000000000012090000a2
:101d1c003e0900000200000002000000010000006b
:041d2c0000000000b3
:020000040000fa
:101d30000200fa00000f78001e00780080004000ca
:101d400000802000008040001000780000407800f3
:101d5000804078000174a10000c8b30000c04000ba
:101d60000b010700f01b2e00410e2000ef000700c2
:101d70001e007800cf80de0052002000030020000b
:101d8000820f5000838f580013003e000060010056
:101d9000050037000600370007003700080037004d
:101da000090037000a003700d622a9000b003700cf
:101db000d662a90009003700d642a9000700370003
:101dc000d622a80005003700d662a800030037001d
:101dd000d642a8000100370000000000c06f2800b4
:101de00031392000d10007000080fa000000060011
:101df0002200fa00970007000000eb00000f7800b7
:101e00003b00370010c0b300e100070020c0b30062
:101e1000df00070080c8b300dd0007001e00780067
:101e2000004078000043b000e20007001e00780088
:101e300080004000c08020000080400090017800b9
:101e40001e007800800040000082200000804000da
:101e5000100178001e0078008000400040832000c0
:101e600000804000900078000e80e800831f78001a
:101e7000821f7800811f780001d92800811f780017
:101e800029f90700e887570000ccb300c00007001d
:101e90000e80e800b30007001e00780080004000bc
:101ea000408320000080400010007800600c880013
:101eb0001e0078008000400000822000008040006a
:101ec00010007800900c88001e0078008000400010
:101ed000c08020000080400010007800300c880096
:101ee000f00d270021072000900007001e0fe800da
:101ef0001e007800e90f5000c2ff3400beff37001b
:101f0000889fbe008a9fbe00dd02a900e222a800d1
:101f1000000f2000c622b7001b0020000004eb00c9
:101f20000a08200089bb2000e07621000100200083
:101f30007e000700e202a800c0002000010020008f
:101f40007a000700401680000a00600001003a0095
:101f50008005eb00e202a900e00020000100200063
:101f600072000700e202a800c0002000010020006b
:101f70006e000700e202a900e0002000010020003e
:101f80006a0007000804e800890f540002003c00c2
:101f9000e08f5500e4ff3a00f0f02f00c622b600b3
:101fa000e222a900dd02a8004f05be004f04be00da
:101fb00000000600e0dc2d00610020005b0007004f
:101fc000000f2000a822b700f0f02f00aa22b600d0
:101fd000ca22b600e222a900dd02a900e202a9009d
:101fe000c622b600de22a900d902a900de02a9009d
:101ff00030c3b30066000700e09e240021002000eb
:102000004a00070020c3b30061000700e09e2400df
:10201000210020004500070080c2b3005c000700db
:10202000c0c0b3005a00070060c0b30058000700ea
:1020300010c0b3005600070020c0b30054000700d2
:1020400080c0b30052000700c0c0b30050000700ba
:10205000000006000000fa00b0168000e000b300a7
:10206000b01688009116800010ff2f0000806000dd
:1020700090168800cfff07000000eb0030088800b2
:10208000803e200060088800000128008008880049
:1020900000402000300c88000000eb00400c88005d
:1020a00060002000500c880000402000600c880078
:1020b0000000eb00700c880060002000800c88009d
:1020c00000402000900c88000000eb00a00c88006d
:1020d00060002000b00c88000080fa0000000600bc
:1020e000889fbe00f9f02f008004fd00ca22b600d0
:1020f0008004fd000004fb0008007800000fb2001f
:10210000ca22b700340007008004fd00ca22b600ce
:102110008004fd004440dd00000fb200ca22b70079
:0c2120002d0007004f04be000000060068
:020000040000fa
:10212c00f03fb1000180b10006003500ee0309005c
:10213c0000000000403fb1000180b100fbff3d00fa
:10214c001000b000203fb0000200350000800900f4
:08215c00000000000000060075
:020000040000fa
:10216400881f78000004780018407800e04f500081
:10217400040032000e00070058407800e04f500081
:10218400fcff3a004f04780000000600881f780026
:102194000044780059ff0700dd02a90008407800d8
:1021a400ceff0700dd02a8004f04780000000600ff
:1021b400881f78000044780050ff0700dd02a80063
:1021c40008407800c5ff0700dd02a8004f0478002e
:1021d40000000600c000200001002000d2ff07001c
:1021e400e202a800e000200001002000ceff07006a
:0821f400e202a9000000060050
:020000040000fa
:0200000401f009
:04000000f7ff000006
:020000040000fa
:0200000401f009
:04000400ff7f00007a
:020000040000fa
:0200000401f009
:040008007eff000077
:020000040000fa
:0200000401f009
:04001400ffff0000ea
:00000001FF
